:1008B300446861726D656E646572004A6974656E41
:1008C30064657200416268697368656B004B756D9E
:0308D3006172004F
:08090F00C2B21208EEC2B022D0
:08091700D2B21208EEC2B022B8
:1008D6007F3812090F1208F47F0E12090F1208F45E
:0808E6007FC012090F0208F4A3
:060800008B088A09890A39
:10080600EF60047FC080027F8012090FE4F50BAB16
:1008160008AA09A90A850B82758300120886FF605B
:10082600051209178010E50BC3941050097F20129A
:0F0836000917050B80F0050BE50BC3941040D09C
:010845002290
:100846001208D67BFF7A0879B3E4FF1208007BFF13
:100856007A0879BE7F011208007F0712090F7F010F
:1008660012090F7BFF7A0879C7E4FF1208007BFFA5
:100876007A0879D07F011208007F0712090F80C31A
:0608EE00C2B18FA0D2B0E0
:0E08F400E4FFFE0FBF00010EBE75F8BF30F529
:0109020022D2
:03000000020903EF
:0C090300787FE4F6D8FD75810B020846F1
:10088600BB010CE58229F582E5833AF583E0225027
:1008960006E92582F8E622BBFE06E92582F8E22271
:0D08A600E58229F582E5833AF583E493228B
:00000001FF
