:1008730048494D414E5348552026204B4152414E45
:1008830000414248495348454B202620415955537E
:0208930048001B
:0808E900C2B21208C8C2B0221D
:0808F100D2B21208C8C2B02205
:1008B0007F381208E91208CE7F0E1208E91208CE1E
:0808C0007FC01208E90208CE16
:060800008B088A09890A39
:10080600EF60047FC080027F801208E9E4F50BAB3D
:1008160008AA09A90A850B82758300120846FF609B
:10082600051208F18010E50BC3941050097F2012C1
:0F08360008F1050B80F0050BE50BC3941040D0C3
:010845002290
:100895001208B07BFF7A087973E4FF1208007BFF2A
:0B08A5007A0879847F0112080080E8C7
:0608C800C2B18FA0D2B006
:0E08CE00E4FFFE0FBF00010EBE75F8BF30F54F
:0108DC0022F9
:030000000208DD16
:0C08DD00787FE4F6D8FD75810B020895C9
:10084600BB010CE58229F582E5833AF583E0225067
:1008560006E92582F8E622BBFE06E92582F8E222B1
:0D086600E58229F582E5833AF583E49322CB
:00000001FF
