:100A7300008800EB004C0049002B00190018008B84
:040A83000008000B5C
:0B0A480025E02408F808E6F5A07F0573
:100A5300E4FDFCE4FBFAD3EB9FEA9E50070BBB00DB
:0F0A6300010A80F20DBD00010CED641E4C70E421
:010A72002261
:100A1500EF64014E7006C2B7D2B6800AEF64024E8B
:100A25007009D2B7C2B6D2B5D2B422EF64034E7004
:100A350009D2B7D2B6C2B5D2B422D2B7D2B6D2B5E0
:030A4500C2B42216
:10094B0078087C007D007BFF7A0A79737E007F1428
:10095B001208D09000007C007D0AAF82AE83120893
:10096B00F68C228D237C007D0AAF82AE831208F6B3
:10097B00AB07AA067C007D061208F68C208D217C25
:10098B00007D06AF03AE021208F6AA06AB077C0089
:10099B007D0A1208F68C1E8D1FAE02AF037C007D04
:1009AB000A1208F68E1C8F1DE4F524F5257F047EB4
:1009BB0000120A15E52325E02408F808E6F5A00F38
:1009CB00120A537F03120A15E521120A487F0212FD
:1009DB000A15E51F120A487F01120A15E51D120AB6
:1009EB00480525E52570020524C39409E5249400E8
:1009FB0040BBE58264E77004E58364266004A302D0
:0A0A0B000961E4F583F58202096138
:03000000020A876A
:0C0A8700787FE4F6D8FD75812502094B4C
:10080000E709F608DFFA8046E709F208DFFA803EDA
:1008100088828C83E709F0A3DFFA8032E309F608C7
:10082000DFFA8078E309F208DFFA807088828C832F
:10083000E309F0A3DFFA806489828A83E0A3F608E3
:10084000DFFA805889828A83E0A3F208DFFA804CBD
:1008500080D280FA80C680D4806980F28033801094
:1008600080A680EA809A80A880DA80E280CA8033FD
:1008700089828A83ECFAE493A3C8C582C8CCC58375
:10088000CCF0A3C8C582C8CCC583CCDFE9DEE78045
:100890000D89828A83E493A3F608DFF9ECFAA9F0C4
:1008A000EDFB2289828A83ECFAE0A3C8C582C8CC1A
:1008B000C583CCF0A3C8C582C8CCC583CCDFEADE33
:1008C000E880DB89828A83E493A3F208DFF980CC95
:1008D00088F0EF60010E4E60C388F0ED2402B4048E
:1008E0000050B9F582EB2402B4040050AF23234535
:0608F00082239008507302
:1008F600BC000BBE0029EF8DF084FFADF022E4CCE6
:10090600F875F008EF2FFFEE33FEEC33FCEE9DECAE
:10091600984005FCEE9DFE0FD5F0E9E4CEFD22EDF4
:10092600F8F5F0EE8420D21CFEADF075F008EF2F3E
:10093600FFED33FD4007985006D5F0F222C398FD2F
:050946000FD5F0EA22CC
:00000001FF
