:0C08C00068656C6C6F00776F726C6400F0
:0808D800C2B21208ABC2B0224B
:0808E000D2B21208ABC2B02233
:100893007F381208D81208B17F0E1208D81208B197
:0808A3007FC01208D80208B161
:060800008B088A09890A39
:10080600EF60047FC080027F801208D8E4F50BAB4E
:1008160008AA09A90A850B82758300120846FF609B
:10082600051208E08010E50BC3941050097F2012D2
:0F08360008E0050B80F0050BE50BC3941040D0D4
:010845002290
:100873001208937BFF7A0879C0E4FF1208007BFF1C
:100883007A0879C67F011208007F071208D880E32F
:0608AB00C2B18FA0D2B023
:0E08B100E4FFFE0FBF00010EBE75F8BF30F56C
:0108BF002216
:030000000208CC27
:0C08CC00787FE4F6D8FD75810B020873FC
:10084600BB010CE58229F582E5833AF583E0225067
:1008560006E92582F8E622BBFE06E92582F8E222B1
:0D086600E58229F582E5833AF583E49322CB
:00000001FF
