:0708D1007177657274790074
:0808C100C2B21208A0C2B0226D
:0808C900D2B21208A0C2B02255
:100873007F381208C11208A67F0E1208C11208A6FB
:080883007FC01208C10208A6A3
:060800008B088A09890A39
:10080600EF60047FC080027F801208C1E4F50BAB65
:1008160008AA09A90A850B82758300120846FF609B
:10082600051208C98010E50BC3941050097F2012E9
:0F08360008C9050B80F0050BE50BC3941040D0EB
:010845002290
:10088B001208737BFF7A0879D1E4FF1208007F040A
:05089B001208C180EE0F
:0608A000C2B18FA0D2B02E
:0E08A600E4FFFE0FBF00010EBE75F8BF30F577
:0108B4002221
:030000000208B53E
:0C08B500787FE4F6D8FD75810B02088BFB
:10084600BB010CE58229F582E5833AF583E0225067
:1008560006E92582F8E622BBFE06E92582F8E222B1
:0D086600E58229F582E5833AF583E49322CB
:00000001FF
