:0C08CD0031323334350068656C6C6F000C
:0808E500C2B21208B8C2B02231
:0808ED00D2B21208B8C2B02219
:1008A0007F381208E51208BE7F0E1208E51208BE56
:0808B0007FC01208E50208BE3A
:060800008B088A09890A39
:10080600EF60047FC080027F801208E5E4F50BAB41
:1008160008AA09A90A850B82758300120873FF606E
:10082600051208ED8010E50BC3941050097F2012C5
:0F08360008ED050B80F0050BE50BC3941040D0C7
:010845002290
:100846001208A07BFF7A0879CD7F011208007BFF92
:100856007A0879D3E4FF1208007F801208E57F103A
:0D0866001208E51208BE7F011208E580D6D9
:0608B800C2B18FA0D2B016
:0E08BE00E4FFFE0FBF00010EBE75F8BF30F55F
:0108CC002209
:030000000208D91A
:0C08D900787FE4F6D8FD75810B0208461C
:10087300BB010CE58229F582E5833AF583E022503A
:1008830006E92582F8E622BBFE06E92582F8E22284
:0D089300E58229F582E5833AF583E493229E
:00000001FF
