:10080000C2B7C2B6C2B5C2B475A08812086875A0D6
:10081000EB12086875A04C12086875A049120868A8
:1008200075A02B12086875A01912086875A0181217
:10083000086875A08B12086875A00812086875A072
:100840000B12086875A00A12086875A008120868DB
:1008500075A09C12086875A08812086875A01C1203
:08086000086875A01E0208687B
:0E086800E4FFFE0FBF00010EBE75F8BF30F5B5
:01087600225F
:030000000208777C
:0C087700787FE4F6D8FD758107020800C8
:00000001FF
