:10080000C2B712098275A0EB12098575A04C1209B6
:100810008575A04912098575A02B12098575A01947
:1008200012098575A01812098575A08B12098575A6
:10083000A00812098575A00B12098575A00A120976
:100840008575A00812098575A09C12098512098278
:1008500075A01C12098575A01E120985C2B675A067
:100860008812098575A0EB12098575A04C120985BF
:1008700075A04912098575A02B12098575A019125A
:10088000098575A01812098575A08B12098575A0B8
:100890000812098575A00B12098575A00A12098531
:1008A00075A00812098575A09C12098575A088128B
:1008B000098575A01C12098575A01E120985C2B58F
:1008C00075A08812098575A0EB12098575A04C12D8
:1008D000098575A04912098575A02B12098575A097
:1008E0001912098575A01812098575A08B12098542
:1008F00075A00812098575A00B12098575A00A124A
:10090000098575A00812098575A09C12098575A036
:100910008812098575A01C12098575A01E1209850B
:10092000C2B475A08812098575A0EB12098575A05F
:100930004C12098575A04912098575A02B120985ED
:1009400075A01912098575A01812098575A08B125A
:10095000098575A00812098575A00B12098575A077
:100960000A12098575A00812098575A09C120985CF
:1009700075A08812098575A01C12098575A01E0234
:020980000985E7
:0309820075A088D5
:0E098500E4FFFE0FBF00010EBE75F8BF30F597
:010993002241
:030000000209945E
:0C099400787FE4F6D8FD758107020800AA
:00000001FF
