:100A7200008800EB004C0049002B0019001800CB45
:040A82000008000B5D
:0B0A470025E02408F808E6F5A07F0574
:100A5200E4FDFCE4FBFAD3EB9FEA9E50070BBB00DC
:0F0A6200010A80F20DBD00010CED64074C70E439
:010A71002262
:100A1400EF64014E7006C2B7D2B6800AEF64024E8C
:100A24007009D2B7C2B6D2B5D2B422EF64034E7005
:100A340009D2B7D2B6C2B5D2B422D2B7D2B6D2B5E1
:030A4400C2B42217
:10094B0078087C007D007BFF7A0A79727E007F1429
:10095B001208D09000007C007D0AAF82AE83120893
:10096B00F68C228D237C007D0AAF82AE831208F6B3
:10097B00AB07AA067C007D0A1208F68C208D217C21
:10098B00007D0AAF03AE021208F6AA06AB077C0085
:10099B007D0A1208F68C1E8D1FAE02AF037C007D04
:1009AB000A1208F68E1C8F1DE4F524F5257F017EB7
:1009BB0000120A14E51D120A477F02120A14E51FE2
:1009CB00120A477F03120A14E521120A471F120A63
:1009DB0014E52325E02408F808E6F5A00F120A52C7
:1009EB000525E52570020524C39405E524940040F4
:1009FB00BCE582640F7004E58364276004A30209DD
:090A0B0061E4F583F58202096142
:03000000020A866B
:0C0A8600787FE4F6D8FD75812502094B4D
:10080000E709F608DFFA8046E709F208DFFA803EDA
:1008100088828C83E709F0A3DFFA8032E309F608C7
:10082000DFFA8078E309F208DFFA807088828C832F
:10083000E309F0A3DFFA806489828A83E0A3F608E3
:10084000DFFA805889828A83E0A3F208DFFA804CBD
:1008500080D280FA80C680D4806980F28033801094
:1008600080A680EA809A80A880DA80E280CA8033FD
:1008700089828A83ECFAE493A3C8C582C8CCC58375
:10088000CCF0A3C8C582C8CCC583CCDFE9DEE78045
:100890000D89828A83E493A3F608DFF9ECFAA9F0C4
:1008A000EDFB2289828A83ECFAE0A3C8C582C8CC1A
:1008B000C583CCF0A3C8C582C8CCC583CCDFEADE33
:1008C000E880DB89828A83E493A3F208DFF980CC95
:1008D00088F0EF60010E4E60C388F0ED2402B4048E
:1008E0000050B9F582EB2402B4040050AF23234535
:0608F00082239008507302
:1008F600BC000BBE0029EF8DF084FFADF022E4CCE6
:10090600F875F008EF2FFFEE33FEEC33FCEE9DECAE
:10091600984005FCEE9DFE0FD5F0E9E4CEFD22EDF4
:10092600F8F5F0EE8420D21CFEADF075F008EF2F3E
:10093600FFED33FD4007985006D5F0F222C398FD2F
:050946000FD5F0EA22CC
:00000001FF
