:10080000C2B775A0EB12084975A04C12084975A033
:100810004912084975A02B12084975A019120849F8
:1008200075A01812084975A08B12084975A0081206
:10083000084975A00B12084975A0EB120866C2B6EC
:0908400075A088120866D2B622E8
:10084900E4FFFEE4FDFC0DBD00010CBC75F8BD30F4
:0C085900F50FBF00010EEF64054E70E7C4
:010865002270
:0E086600E4FFFE0FBF00010EBE0BF8BFB8F599
:010874002261
:030000000208757E
:0C087500787FE4F6D8FD758107020800CA
:00000001FF
