:100ACF00008800EB004C0049002B00190018008B28
:060ADF000008000B00EB13
:040A98007F027E005B
:100A9C00EF64014E7006C2B7D2B6800AEF64024E04
:100AAC007009D2B7C2B6D2B5D2B422EF64034E707D
:100ABC0009D2B7D2B6C2B5D2B422D2B7D2B6D2B559
:030ACC00C2B4228F
:1008000078107C007D007BFF7A0A79CF7E007F160E
:10081000120A387F017E00120A9C8511A07F051202
:100820000A72120A988511A07F05120A727F037E50
:1008300000120A9C8511A07F05120A727F047E00B7
:10084000120A9C8511A00F120A72E4F508F509122C
:100850000A5E120A988511A07F05120A727F037E34
:1008600000120A9C8511A07F05120A727F047E0087
:10087000120A9C8511A00F120A720509E50970027F
:100880000508C39409E5086480948040C2E4F50A31
:10089000F50B7F017E00120A9CE50925E02410F883
:1008A00008E6F5A0120A72120A98E50B120A677F91
:1008B000037E00120A9C8511A07F05120A727F0434
:1008C0007E00120A9C8511A00F120A72050BE50B1F
:1008D0007002050AC39409E50A6480948040B3E479
:1008E000F50CF50D120A5E120A98E50B120A677FE5
:1008F000037E00120A9CE50D120A677F047E001237
:100900000A9C8511A00F120A72050DE50D700205F3
:100910000CC39409E50C6480948040C8E4F50EF59E
:100920000FC3E50F9409E50E64809480400302082C
:1009300013120A5E120A98E50B120A677F037E0003
:10094000120A9CE50D120A677F047E00120A9CE5DC
:100950000F25E02410F808E6F5A00F120A72050F23
:08096000E50F70BD050E80B922
:100A5E007F017E00120A9CE50925E02410F808E6C5
:040A6E00F5A07F056B
:100A7200E4FDFCC3ED9FEE6480F8EC6480985015B1
:100A8200E4FBFA0BBB00010ABA0BF8BBB8F50DBDCB
:050A920000010C80DEF4
:010A9700223C
:03000000020AE50C
:0C0AE500787FE4F6D8FD7581250208003A
:10096800E709F608DFFA8046E709F208DFFA803E71
:1009780088828C83E709F0A3DFFA8032E309F6085E
:10098800DFFA8078E309F208DFFA807088828C83C6
:10099800E309F0A3DFFA806489828A83E0A3F6087A
:1009A800DFFA805889828A83E0A3F208DFFA804C54
:1009B80080D280FA80C680D4806980F2803380102B
:1009C80080A680EA809A80A880DA80E280CA803394
:1009D80089828A83ECFAE493A3C8C582C8CCC5830C
:1009E800CCF0A3C8C582C8CCC583CCDFE9DEE780DC
:1009F8000D89828A83E493A3F608DFF9ECFAA9F05B
:100A0800EDFB2289828A83ECFAE0A3C8C582C8CCB0
:100A1800C583CCF0A3C8C582C8CCC583CCDFEADEC9
:100A2800E880DB89828A83E493A3F208DFF980CC2B
:100A380088F0EF60010E4E60C388F0ED2402B40424
:100A48000050B9F582EB2402B4040050AF232345CB
:060A580082239009B8732F
:00000001FF
